:100000000C942A000C943C000C943C000C943C0092
:100010000C943C000C943C000C943C000C943C0070
:100020000C943C000C943C000C943C000C943C0060
:100030000C943C000C943C000C943C000C943C0050
:100040000C943C000C943C000C943C000C949401E7
:100050000C943C0011241FBECFE5D8E0DEBFCDBF1D
:1000600010E0A0E6B0E001C01D92A838B107E1F7AA
:100070000E947C010C94A3020C9400000895089542
:1000800008950895089508950895089580E00E94C0
:10009000240289E30E94240281E080936100089594
:1000A00080E00E94240288E30E94240210926100F2
:1000B000089580E00E94240287E30E94240281E0E8
:1000C00080938500089580E00E94240286E30E94C8
:1000D00024021092850008951F93182F80E00E943B
:1000E000240283E30E942402812F0E9424021093A1
:1000F00086001F9108951F93182F80E00E9424020C
:1001000082E30E942402812F0E9424021093630044
:100110001F9108951F93182F80E00E94240281E30D
:100120000E942402812F0E942402109387001F91B5
:10013000089580E00E94240285E30E94240208952D
:100140001F93182F80E00E94240284E30E9424025F
:10015000812F0E9424021F91089590916600809142
:100160008600981721F0809166000E946C009091A3
:10017000670080916200981741F0809167000E94AB
:10018000A0008091670080936200809161008130BF
:1001900041F4809164000E948A00809165000E9471
:1001A0007B00809161008823A1F490918700809169
:1001B0006400981721F0809164000E948A00909159
:1001C000630080916500981721F0809165000E947E
:1001D0007B0080916800813021F40E949900109288
:1001E000680080916900882349F49091850080918E
:1001F0006900981779F00E9463000CC08091690033
:10020000813041F49091850080916900981711F038
:100210000E94590080916A00882349F490916100FE
:1002200080916A00981779F00E945000089580919B
:100230006A00813041F49091610080916A009817C2
:1002400011F00E944600089590E890936400809118
:10025000640080938700909365008091650080938F
:10026000630085E08093660080916600809386003D
:1002700010926700809167008093620080E00E9486
:10028000A0001092680081E0809369000E945900EC
:10029000809169008093850010926A000E9450004E
:1002A00080916A008093610010926B0010926C0044
:1002B00010926D0010926E0010926F0010927000FC
:1002C00010927100109272000895CF93DF9380E036
:1002D0000E94240285E20E942402CFE0D0E00E9426
:1002E0003E02FE01EC59FF4F80832196C731D105B4
:1002F000B1F7DF91CF91089580E50E9489010E94B6
:100300001A0278940E9499000E9424010E94AD0074
:10031000FDCF82B986B78F7D86BF86B7856486BFDD
:100320008FEF8093600008951F920F920FB60F9287
:1003300011248F939F93EF93FF9381B190E0887F77
:1003400090708838910509F468C089389105C4F423
:100350008037910509F461C08137910544F48036F6
:10036000910529F18836910509F059C056C08837A2
:10037000910509F452C08038910509F050C01DC0A4
:10038000803A910509F449C0813A91054CF48039CD
:10039000910509F442C08839910509F040C03DC07B
:1003A000883A910511F1883B9105C9F51EC085EC8D
:1003B00086BF8FEF8093600034C093B1809160005E
:1003C0008F3F41F4923218F49093600026C010924F
:1003D000600023C0809160008232C0F4E091600030
:1003E000F0E0EC59FF4F908311C0809160008F3F87
:1003F00011F41092600080916000823268F4E09104
:100400006000F0E0EC59FF4F808183B9809160007B
:100410008F5F8093600001C013B885EC01C085ED4B
:1004200086BFFF91EF919F918F910F900FBE0F901C
:100430001F9018958AB188618AB980B5866880BD99
:1004400010BC89E189B908955D9BFECF8CB980E02D
:1004500090E00895FC0104C05D9BFECF8CB93196FD
:1004600080818823C9F7089503C05D9BFECF2CB916
:10047000FC01019624912223C1F708955F9BFECFD2
:100480008CB10895DF93CF93CDB7DEB728970FB621
:10049000F894DEBF0FBECDBFBE016F5F7F4F4AE055
:1004A00050E00E945E020E942A0228960FB6F8943D
:1004B000DEBF0FBECDBFCF91DF910895FB019F013D
:1004C000E8944230C4F04532B4F44A3029F497FB42
:1004D0001EF4909581959F4F642F77270E948F027D
:1004E000805D8A330CF0895D8193CB010097A1F781
:1004F00016F45DE251931082C9010C947F02DC0175
:10050000FC01672F71917723E1F7329704C07C914A
:100510006D9370836291AE17BF07C8F30895AA1B4D
:10052000BB1B51E107C0AA1FBB1FA617B70710F0DE
:10053000A61BB70B881F991F5A95A9F78095909510
:0A054000BC01CD010895F894FFCF2F
:00000001FF
